BL51 BANKED LINKER/LOCATER V6.22.2.0                                                    07/29/2020  15:47:13  PAGE 1


BL51 BANKED LINKER/LOCATER V6.22.2.0, INVOKED BY:
C:\KEIL_V5\C51\BIN\BL51.EXE .\obj\main.obj, .\obj\stc15w_it.obj, .\obj\system.obj, .\obj\STARTUP.obj TO .\obj\TQ30 PRINT
>>  (.\list\TQ30.m51) RAMSIZE (256)


MEMORY MODEL: LARGE


INPUT MODULES INCLUDED:
  .\obj\main.obj (MAIN)
  .\obj\stc15w_it.obj (STC15W_IT)
  .\obj\system.obj (SYSTEM)
  .\obj\STARTUP.obj (?C_STARTUP)
  C:\KEIL_V5\C51\LIB\C51L.LIB (?C_INIT)
  C:\KEIL_V5\C51\LIB\C51L.LIB (?C?CLDPTR)
  C:\KEIL_V5\C51\LIB\C51L.LIB (?C?ILDIX)
  C:\KEIL_V5\C51\LIB\C51L.LIB (?C?ULDIV)
  C:\KEIL_V5\C51\LIB\C51L.LIB (?C?ULSHR)
  C:\KEIL_V5\C51\LIB\C51L.LIB (?C?LSTXDATA)


LINK MAP OF MODULE:  .\obj\TQ30 (MAIN)


            TYPE    BASE      LENGTH    RELOCATION   SEGMENT NAME
            -----------------------------------------------------

            * * * * * * *   D A T A   M E M O R Y   * * * * * * *
            REG     0000H     0008H     ABSOLUTE     "REG BANK 0"
            IDATA   0008H     0001H     UNIT         ?STACK

            * * * * * * *  X D A T A   M E M O R Y  * * * * * * *
            XDATA   0000H     0106H     UNIT         ?XD?SYSTEM
            XDATA   0106H     0006H     UNIT         ?XD?_UART2_CONFIG?SYSTEM
            XDATA   010CH     0006H     UNIT         _XDATA_GROUP_
            XDATA   0112H     0003H     UNIT         ?XD?_UART2SENDDATA?SYSTEM

            * * * * * * *   C O D E   M E M O R Y   * * * * * * *
            CODE    0000H     0003H     ABSOLUTE     
            CODE    0003H     0006H     UNIT         ?C_INITSEG
                    0009H     0002H                  *** GAP ***
            CODE    000BH     0003H     ABSOLUTE     
            CODE    000EH     0013H     UNIT         ?PR?_DELAY_MS?SYSTEM
                    0021H     0002H                  *** GAP ***
            CODE    0023H     0003H     ABSOLUTE     
            CODE    0026H     001CH     UNIT         ?PR?_UART3SENDDATA?SYSTEM
                    0042H     0001H                  *** GAP ***
            CODE    0043H     0003H     ABSOLUTE     
            CODE    0046H     0036H     UNIT         ?PR?_UART2_CONFIG?SYSTEM
            CODE    007CH     0009H     UNIT         ?PR?STC15W_IT
                    0085H     0006H                  *** GAP ***
            CODE    008BH     0003H     ABSOLUTE     
            CODE    008EH     011CH     UNIT         ?C?LIB_CODE
            CODE    01AAH     009BH     UNIT         ?PR?_UART1_CONFIG?SYSTEM
            CODE    0245H     008CH     UNIT         ?C_C51STARTUP
            CODE    02D1H     008AH     UNIT         ?PR?MAIN?MAIN
            CODE    035BH     0082H     UNIT         ?PR?TIMER0INTERRUPT?STC15W_IT
            CODE    03DDH     007FH     UNIT         ?PR?_SETIO?MAIN
BL51 BANKED LINKER/LOCATER V6.22.2.0                                                  07/29/2020  15:47:13  PAGE 2


            CODE    045CH     0074H     UNIT         ?PR?_UART3_CONFIG?SYSTEM
            CODE    04D0H     0056H     UNIT         ?PR?SYSTEM
            CODE    0526H     0054H     UNIT         ?PR?UART2INTERRUPT?STC15W_IT
            CODE    057AH     0054H     UNIT         ?PR?UART3INTERRUPT?STC15W_IT
            CODE    05CEH     004CH     UNIT         ?PR?UART1INTERRUPT?STC15W_IT
            CODE    061AH     002CH     UNIT         ?PR?PROTOCAL?MAIN
            CODE    0646H     0028H     UNIT         ?PR?GPIO_CONF?SYSTEM
            CODE    066EH     001FH     UNIT         ?PR?MAIN
            CODE    068DH     001BH     UNIT         ?PR?_SETTIMER2BAUDRAYE?SYSTEM
            CODE    06A8H     0018H     UNIT         ?PR?_UART1SENDDATA?SYSTEM
            CODE    06C0H     0018H     UNIT         ?PR?_UART2SENDDATA?SYSTEM
            CODE    06D8H     0016H     UNIT         ?PR?_DELAY_US?SYSTEM
            CODE    06EEH     0012H     UNIT         ?PR?TIMER0CONF?SYSTEM
            CODE    0700H     0011H     UNIT         ?PR?_UART1SENDCHAR?SYSTEM
            CODE    0711H     0011H     UNIT         ?PR?_UART2SENDCHAR?SYSTEM
            CODE    0722H     0011H     UNIT         ?PR?_UART3SENDCHAR?SYSTEM



OVERLAY MAP OF MODULE:   .\obj\TQ30 (MAIN)


SEGMENT                                 XDATA_GROUP
  +--> CALLED SEGMENT                 START    LENGTH
-----------------------------------------------------
?PR?UART1INTERRUPT?STC15W_IT          -----    -----
  +--> ?PR?STC15W_IT

*** NEW ROOT ***************************************************

?PR?UART2INTERRUPT?STC15W_IT          -----    -----
  +--> ?PR?STC15W_IT

*** NEW ROOT ***************************************************

?PR?UART3INTERRUPT?STC15W_IT          -----    -----
  +--> ?PR?STC15W_IT

*** NEW ROOT ***************************************************

?C_C51STARTUP                         -----    -----
  +--> ?PR?MAIN?MAIN
  +--> ?C_INITSEG

?PR?MAIN?MAIN                         -----    -----
  +--> ?PR?GPIO_CONF?SYSTEM
  +--> ?PR?_SETIO?MAIN
  +--> ?PR?TIMER0CONF?SYSTEM
  +--> ?PR?_UART1_CONFIG?SYSTEM
  +--> ?PR?_UART3_CONFIG?SYSTEM
  +--> ?PR?_DELAY_MS?SYSTEM
  +--> ?PR?_DELAY_US?SYSTEM
  +--> ?PR?PROTOCAL?MAIN
  +--> ?PR?_UART3SENDDATA?SYSTEM

?PR?_SETIO?MAIN                       -----    -----
  +--> ?PR?MAIN
BL51 BANKED LINKER/LOCATER V6.22.2.0                                                  07/29/2020  15:47:13  PAGE 3



?PR?_UART1_CONFIG?SYSTEM              010CH    0006H
  +--> ?PR?SYSTEM
  +--> ?PR?_SETTIMER2BAUDRAYE?SYSTEM

?PR?_UART3_CONFIG?SYSTEM              010CH    0006H
  +--> ?PR?SYSTEM
  +--> ?PR?_SETTIMER2BAUDRAYE?SYSTEM

?PR?PROTOCAL?MAIN                     -----    -----
  +--> ?PR?_SETIO?MAIN
  +--> ?PR?_UART1SENDDATA?SYSTEM

?PR?_UART1SENDDATA?SYSTEM             010CH    0003H
  +--> ?PR?SYSTEM
  +--> ?PR?_UART1SENDCHAR?SYSTEM

?PR?_UART3SENDDATA?SYSTEM             010CH    0003H
  +--> ?PR?SYSTEM
  +--> ?PR?_UART3SENDCHAR?SYSTEM



SYMBOL TABLE OF MODULE:  .\obj\TQ30 (MAIN)

  VALUE           TYPE          NAME
  ----------------------------------

  -------         MODULE        MAIN
  C:0000H         SYMBOL        _ICE_DUMMY_
  D:0080H         PUBLIC        P0
  D:0090H         PUBLIC        P1
  D:00A0H         PUBLIC        P2
  D:00B0H         PUBLIC        P3
  D:00C0H         PUBLIC        P4
  D:00C8H         PUBLIC        P5
  D:00E8H         PUBLIC        P6
  D:00F8H         PUBLIC        P7
  D:00A8H         PUBLIC        IE
  D:00B8H         PUBLIC        IP
  D:00D8H         PUBLIC        CCON
  C:02D1H         PUBLIC        main
  B:00A0H.0       PUBLIC        I00
  B:00A0H.1       PUBLIC        I01
  B:00A0H.2       PUBLIC        I02
  B:00A0H.3       PUBLIC        I03
  B:00A0H.4       PUBLIC        I04
  B:00A0H.5       PUBLIC        I05
  B:00A0H.6       PUBLIC        I06
  B:00B0H.4       PUBLIC        I07
  B:00B0H.5       PUBLIC        I08
  B:00B0H.6       PUBLIC        I09
  D:0098H         PUBLIC        SCON
  D:0088H         PUBLIC        TCON
  D:00F0H         PUBLIC        B
  D:00E0H         PUBLIC        ACC
  B:00B0H.7       PUBLIC        I010
BL51 BANKED LINKER/LOCATER V6.22.2.0                                                  07/29/2020  15:47:13  PAGE 4


  B:00C0H.1       PUBLIC        I011
  B:00C0H.2       PUBLIC        I012
  B:00C0H.3       PUBLIC        I013
  B:00C0H.4       PUBLIC        I014
  B:00C0H.5       PUBLIC        I015
  C:03DDH         PUBLIC        _setIO
  C:061AH         PUBLIC        protocal
  D:00D0H         PUBLIC        PSW
  C:066EH         SYMBOL        Com0009
  C:066EH         SYMBOL        L?0010
  C:0679H         SYMBOL        L?0011
  C:0683H         SYMBOL        L?0012
  -------         PROC          COM0009
  -------         ENDPROC       COM0009
  -------         PROC          _SETIO
  D:0007H         SYMBOL        High
  D:0005H         SYMBOL        Low
  C:03DDH         LINE#         11
  C:03DDH         LINE#         12
  C:03DDH         LINE#         13
  C:03E3H         LINE#         14
  C:03E9H         LINE#         15
  C:03F4H         LINE#         16
  C:03FEH         LINE#         17
  C:0404H         LINE#         18
  C:040FH         LINE#         19
  C:0418H         LINE#         20
  C:041CH         LINE#         21
  C:0422H         LINE#         22
  C:0428H         LINE#         23
  C:0433H         LINE#         24
  C:043DH         LINE#         25
  C:0443H         LINE#         26
  C:044EH         LINE#         27
  C:0457H         LINE#         28
  C:045BH         LINE#         29
  -------         ENDPROC       _SETIO
  -------         PROC          PROTOCAL
  C:061AH         LINE#         31
  C:061AH         LINE#         32
  C:061AH         LINE#         33
  C:062EH         LINE#         34
  C:062EH         LINE#         35
  C:0637H         LINE#         36
  C:0645H         LINE#         37
  C:0645H         LINE#         38
  -------         ENDPROC       PROTOCAL
  -------         PROC          MAIN
  C:02D1H         LINE#         40
  C:02D1H         LINE#         41
  C:02D1H         LINE#         42
  C:02D4H         LINE#         43
  C:02DAH         LINE#         46
  C:02DDH         LINE#         49
  C:02EFH         LINE#         50
  C:0301H         LINE#         52
  C:0308H         LINE#         53
BL51 BANKED LINKER/LOCATER V6.22.2.0                                                  07/29/2020  15:47:13  PAGE 5


  C:030FH         LINE#         56
  C:030FH         LINE#         57
  C:030FH         LINE#         59
  C:0315H         LINE#         60
  C:0315H         LINE#         61
  C:0317H         LINE#         62
  C:031AH         LINE#         63
  C:031AH         LINE#         65
  C:0329H         LINE#         66
  C:0329H         LINE#         67
  C:032DH         LINE#         68
  C:0332H         LINE#         69
  C:0336H         LINE#         70
  C:0339H         LINE#         71
  C:033BH         LINE#         72
  C:033DH         LINE#         73
  C:0340H         LINE#         74
  C:0344H         LINE#         75
  C:0348H         LINE#         76
  C:034EH         LINE#         77
  C:0359H         LINE#         79
  C:0359H         LINE#         80
  -------         ENDPROC       MAIN
  -------         ENDMOD        MAIN

  -------         MODULE        STC15W_IT
  C:0000H         SYMBOL        _ICE_DUMMY_
  D:0080H         PUBLIC        P0
  D:0090H         PUBLIC        P1
  D:00A0H         PUBLIC        P2
  D:00B0H         PUBLIC        P3
  D:00C0H         PUBLIC        P4
  D:00C8H         PUBLIC        P5
  D:00E8H         PUBLIC        P6
  D:00F8H         PUBLIC        P7
  C:035BH         PUBLIC        Timer0Interrupt
  D:00A8H         PUBLIC        IE
  D:00B8H         PUBLIC        IP
  B:0098H.0       PUBLIC        RI
  B:0098H.1       PUBLIC        TI
  C:05CEH         PUBLIC        Uart1Interrupt
  D:00D8H         PUBLIC        CCON
  C:0526H         PUBLIC        Uart2Interrupt
  C:057AH         PUBLIC        Uart3Interrupt
  D:0099H         PUBLIC        SBUF
  D:0098H         PUBLIC        SCON
  D:0088H         PUBLIC        TCON
  D:00F0H         PUBLIC        B
  D:00E0H         PUBLIC        ACC
  D:009BH         PUBLIC        S2BUF
  D:00ADH         PUBLIC        S3BUF
  D:009AH         PUBLIC        S2CON
  D:00ACH         PUBLIC        S3CON
  D:00D0H         PUBLIC        PSW
  C:007CH         SYMBOL        Com0017
  C:007CH         SYMBOL        L?0024
  C:007CH         SYMBOL        L?0025
BL51 BANKED LINKER/LOCATER V6.22.2.0                                                  07/29/2020  15:47:13  PAGE 6


  -------         PROC          COM0017
  -------         ENDPROC       COM0017
  -------         PROC          TIMER0INTERRUPT
  C:035BH         LINE#         14
  C:0363H         LINE#         16
  C:0371H         LINE#         19
  C:037BH         LINE#         20
  C:037BH         LINE#         21
  C:0389H         LINE#         22
  C:0389H         LINE#         25
  C:038FH         LINE#         26
  C:038FH         LINE#         27
  C:0391H         LINE#         28
  C:0394H         LINE#         29
  C:0394H         LINE#         30
  C:0397H         LINE#         31
  C:039DH         LINE#         32
  C:03A2H         LINE#         33
  C:03A2H         LINE#         34
  C:03A2H         LINE#         36
  C:03A8H         LINE#         37
  C:03A8H         LINE#         38
  C:03AAH         LINE#         39
  C:03ADH         LINE#         40
  C:03ADH         LINE#         41
  C:03B0H         LINE#         42
  C:03B6H         LINE#         43
  C:03BBH         LINE#         44
  C:03BBH         LINE#         45
  C:03BBH         LINE#         47
  C:03C1H         LINE#         48
  C:03C1H         LINE#         49
  C:03C3H         LINE#         50
  C:03C6H         LINE#         51
  C:03C6H         LINE#         52
  C:03C9H         LINE#         53
  C:03CFH         LINE#         54
  C:03D4H         LINE#         55
  C:03D4H         LINE#         56
  C:03D4H         LINE#         57
  -------         ENDPROC       TIMER0INTERRUPT
  -------         PROC          UART1INTERRUPT
  C:05CEH         LINE#         60
  C:05DBH         LINE#         62
  C:05DEH         LINE#         63
  C:05DEH         LINE#         64
  C:05E0H         LINE#         65
  C:05E6H         LINE#         66
  C:05FAH         LINE#         67
  C:0602H         LINE#         68
  C:0602H         LINE#         69
  C:0605H         LINE#         70
  C:0605H         LINE#         71
  C:0605H         LINE#         72
  C:0608H         LINE#         73
  C:0608H         LINE#         74
  C:060AH         LINE#         75
BL51 BANKED LINKER/LOCATER V6.22.2.0                                                  07/29/2020  15:47:13  PAGE 7


  C:060FH         LINE#         76
  C:060FH         LINE#         77
  -------         ENDPROC       UART1INTERRUPT
  -------         PROC          UART2INTERRUPT
  C:0526H         LINE#         80
  C:0533H         LINE#         82
  C:0539H         LINE#         83
  C:0539H         LINE#         84
  C:053CH         LINE#         85
  C:0542H         LINE#         86
  C:0556H         LINE#         87
  C:055EH         LINE#         88
  C:055EH         LINE#         89
  C:0561H         LINE#         90
  C:0561H         LINE#         91
  C:0561H         LINE#         92
  C:0567H         LINE#         93
  C:0567H         LINE#         94
  C:056AH         LINE#         95
  C:056FH         LINE#         96
  C:056FH         LINE#         97
  -------         ENDPROC       UART2INTERRUPT
  -------         PROC          UART3INTERRUPT
  C:057AH         LINE#         100
  C:0587H         LINE#         102
  C:058DH         LINE#         103
  C:058DH         LINE#         104
  C:0590H         LINE#         105
  C:0596H         LINE#         106
  C:05AAH         LINE#         107
  C:05B2H         LINE#         108
  C:05B2H         LINE#         109
  C:05B5H         LINE#         110
  C:05B5H         LINE#         111
  C:05B5H         LINE#         112
  C:05BBH         LINE#         113
  C:05BBH         LINE#         114
  C:05BEH         LINE#         115
  C:05C3H         LINE#         116
  C:05C3H         LINE#         117
  -------         ENDPROC       UART3INTERRUPT
  -------         ENDMOD        STC15W_IT

  -------         MODULE        SYSTEM
  C:0000H         SYMBOL        _ICE_DUMMY_
  D:0093H         PUBLIC        P0M1
  D:0092H         PUBLIC        P1M0
  D:0096H         PUBLIC        P2M0
  D:0091H         PUBLIC        P1M1
  D:0080H         PUBLIC        P0
  D:00B2H         PUBLIC        P3M0
  D:0095H         PUBLIC        P2M1
  D:0090H         PUBLIC        P1
  D:00B4H         PUBLIC        P4M0
  D:00B1H         PUBLIC        P3M1
  D:00A0H         PUBLIC        P2
  D:00CAH         PUBLIC        P5M0
BL51 BANKED LINKER/LOCATER V6.22.2.0                                                  07/29/2020  15:47:13  PAGE 8


  D:00B3H         PUBLIC        P4M1
  D:00B0H         PUBLIC        P3
  D:00CCH         PUBLIC        P6M0
  D:00C9H         PUBLIC        P5M1
  D:00C0H         PUBLIC        P4
  D:00E2H         PUBLIC        P7M0
  D:00CBH         PUBLIC        P6M1
  D:00C8H         PUBLIC        P5
  B:00A8H.7       PUBLIC        EA
  D:00E8H         PUBLIC        P6
  D:00E1H         PUBLIC        P7M1
  D:00F8H         PUBLIC        P7
  D:00A2H         PUBLIC        P_SW1
  D:00BAH         PUBLIC        P_SW2
  D:00A8H         PUBLIC        IE
  C:068DH         PUBLIC        _SetTimer2Baudraye
  B:00A8H.4       PUBLIC        ES
  D:00B8H         PUBLIC        IP
  D:00D8H         PUBLIC        CCON
  D:0099H         PUBLIC        SBUF
  D:0098H         PUBLIC        SCON
  D:0089H         PUBLIC        TMOD
  D:0088H         PUBLIC        TCON
  C:0646H         PUBLIC        gpio_conf
  B:00A0H.7       PUBLIC        RS485_EN
  D:00AFH         PUBLIC        IE2
  D:00F0H         PUBLIC        B
  D:008EH         PUBLIC        AUXR
  D:00E0H         PUBLIC        ACC
  C:01AAH         PUBLIC        _UART1_config
  B:00A8H.1       PUBLIC        ET0
  C:0046H         PUBLIC        _UART2_config
  B:00A8H.3       PUBLIC        ET1
  B:0088H.5       PUBLIC        TF0
  C:045CH         PUBLIC        _UART3_config
  D:008CH         PUBLIC        TH0
  D:008DH         PUBLIC        TH1
  D:00D6H         PUBLIC        TH2
  D:00D4H         PUBLIC        T3H
  D:008AH         PUBLIC        TL0
  D:008BH         PUBLIC        TL1
  D:00D7H         PUBLIC        TL2
  C:000EH         PUBLIC        _delay_ms
  D:00D5H         PUBLIC        T3L
  B:0088H.4       PUBLIC        TR0
  B:0088H.6       PUBLIC        TR1
  C:06A8H         PUBLIC        _Uart1SendData
  C:06C0H         PUBLIC        _Uart2SendData
  C:0026H         PUBLIC        _Uart3SendData
  C:06D8H         PUBLIC        _delay_us
  C:0700H         PUBLIC        _Uart1SendChar
  C:06EEH         PUBLIC        timer0Conf
  X:0000H         PUBLIC        runPara
  D:00D1H         PUBLIC        T4T3M
  C:0711H         PUBLIC        _Uart2SendChar
  C:0722H         PUBLIC        _Uart3SendChar
  X:0002H         PUBLIC        delayMsCount
BL51 BANKED LINKER/LOCATER V6.22.2.0                                                  07/29/2020  15:47:13  PAGE 9


  D:009BH         PUBLIC        S2BUF
  D:00ADH         PUBLIC        S3BUF
  B:0098H.4       PUBLIC        REN
  D:009AH         PUBLIC        S2CON
  D:00ACH         PUBLIC        S3CON
  X:0004H         PUBLIC        uart1
  X:005AH         PUBLIC        uart2
  X:00B0H         PUBLIC        uart3
  D:008FH         PUBLIC        INT_CLKO
  D:00D0H         PUBLIC        PSW
  D:0094H         PUBLIC        P0M0
  C:04D0H         SYMBOL        Com002D
  C:04D0H         SYMBOL        L?0046
  C:04D0H         SYMBOL        L?0047
  C:04F5H         SYMBOL        L?0048
  C:04F5H         SYMBOL        L?0049
  C:0507H         SYMBOL        L?0050
  C:050CH         SYMBOL        L?0051
  C:0513H         SYMBOL        L?0052
  C:0513H         SYMBOL        L?0053
  C:051CH         SYMBOL        L?0054
  -------         PROC          COM002D
  -------         ENDPROC       COM002D
  -------         PROC          _DELAY_US
  D:0006H         SYMBOL        us
  C:06D8H         LINE#         21
  C:06D8H         LINE#         22
  C:06D8H         LINE#         23
  C:06DCH         LINE#         24
  C:06DCH         LINE#         25
  C:06E1H         LINE#         26
  C:06E6H         LINE#         27
  C:06EBH         LINE#         28
  C:06EDH         LINE#         29
  -------         ENDPROC       _DELAY_US
  -------         PROC          _DELAY_MS
  D:0006H         SYMBOL        ms
  C:000EH         LINE#         32
  C:000EH         LINE#         33
  C:000EH         LINE#         34
  C:0016H         LINE#         35
  C:0020H         LINE#         36
  -------         ENDPROC       _DELAY_MS
  -------         PROC          GPIO_CONF
  C:0646H         LINE#         39
  C:0646H         LINE#         40
  C:0646H         LINE#         41
  C:064CH         LINE#         42
  C:0651H         LINE#         43
  C:0656H         LINE#         44
  C:065BH         LINE#         45
  C:0660H         LINE#         46
  C:0665H         LINE#         47
  C:0669H         LINE#         48
  C:066DH         LINE#         49
  -------         ENDPROC       GPIO_CONF
  -------         PROC          TIMER0CONF
BL51 BANKED LINKER/LOCATER V6.22.2.0                                                  07/29/2020  15:47:13  PAGE 10


  C:06EEH         LINE#         52
  C:06EEH         LINE#         53
  C:06EEH         LINE#         54
  C:06F1H         LINE#         55
  C:06F3H         LINE#         57
  C:06F6H         LINE#         58
  C:06F9H         LINE#         59
  C:06FBH         LINE#         60
  C:06FDH         LINE#         61
  C:06FFH         LINE#         62
  -------         ENDPROC       TIMER0CONF
  -------         PROC          _SETTIMER2BAUDRAYE
  D:0004H         SYMBOL        dat
  C:068DH         LINE#         73
  C:0691H         LINE#         74
  C:0691H         LINE#         75
  C:0694H         LINE#         76
  C:0697H         LINE#         77
  C:069AH         LINE#         78
  C:069DH         LINE#         79
  C:06A1H         LINE#         80
  C:06A4H         LINE#         81
  C:06A7H         LINE#         82
  -------         ENDPROC       _SETTIMER2BAUDRAYE
  -------         PROC          _UART1_CONFIG
  X:010CH         SYMBOL        brt
  X:0110H         SYMBOL        timer
  X:0111H         SYMBOL        io
  C:01AAH         LINE#         95
  C:01B0H         LINE#         97
  C:01B0H         LINE#         98
  C:01BCH         LINE#         100
  C:01C4H         LINE#         101
  C:01C4H         LINE#         102
  C:01C7H         LINE#         103
  C:01D1H         LINE#         104
  C:01D3H         LINE#         106
  C:01D3H         LINE#         107
  C:01D5H         LINE#         108
  C:01D8H         LINE#         109
  C:01DBH         LINE#         110
  C:01DEH         LINE#         111
  C:01E1H         LINE#         112
  C:01EEH         LINE#         113
  C:01F7H         LINE#         114
  C:01F9H         LINE#         115
  C:01FCH         LINE#         116
  C:01FEH         LINE#         117
  C:01FEH         LINE#         119
  C:0206H         LINE#         121
  C:0211H         LINE#         122
  C:0211H         LINE#         123
  C:0219H         LINE#         124
  C:021FH         LINE#         125
  C:0221H         LINE#         126
  C:0227H         LINE#         127
  C:0227H         LINE#         128
BL51 BANKED LINKER/LOCATER V6.22.2.0                                                  07/29/2020  15:47:13  PAGE 11


  C:022FH         LINE#         129
  C:0235H         LINE#         130
  C:0237H         LINE#         132
  C:0237H         LINE#         133
  C:023AH         LINE#         134
  C:0240H         LINE#         135
  C:0240H         LINE#         137
  C:0242H         LINE#         138
  C:0244H         LINE#         140
  -------         ENDPROC       _UART1_CONFIG
  -------         PROC          _UART2_CONFIG
  X:0106H         SYMBOL        brt
  X:010AH         SYMBOL        timer
  X:010BH         SYMBOL        io
  C:0046H         LINE#         153
  C:0046H         LINE#         155
  C:0046H         LINE#         156
  C:004CH         LINE#         157
  C:0056H         LINE#         158
  C:0056H         LINE#         160
  C:0059H         LINE#         162
  C:0061H         LINE#         163
  C:0061H         LINE#         164
  C:0064H         LINE#         165
  C:006AH         LINE#         166
  C:006CH         LINE#         168
  C:006CH         LINE#         169
  C:006FH         LINE#         170
  C:0075H         LINE#         171
  C:0075H         LINE#         173
  C:0078H         LINE#         174
  C:007BH         LINE#         175
  -------         ENDPROC       _UART2_CONFIG
  -------         PROC          _UART3_CONFIG
  X:010CH         SYMBOL        brt
  X:0110H         SYMBOL        timer
  X:0111H         SYMBOL        io
  C:045CH         LINE#         188
  C:0462H         LINE#         190
  C:0462H         LINE#         191
  C:046EH         LINE#         192
  C:0476H         LINE#         193
  C:0476H         LINE#         194
  C:0479H         LINE#         195
  C:0483H         LINE#         196
  C:0485H         LINE#         198
  C:0485H         LINE#         199
  C:0488H         LINE#         200
  C:0495H         LINE#         201
  C:049EH         LINE#         202
  C:04A1H         LINE#         203
  C:04A4H         LINE#         204
  C:04A7H         LINE#         205
  C:04A7H         LINE#         207
  C:04AAH         LINE#         208
  C:04ADH         LINE#         210
  C:04B5H         LINE#         211
BL51 BANKED LINKER/LOCATER V6.22.2.0                                                  07/29/2020  15:47:13  PAGE 12


  C:04B5H         LINE#         212
  C:04B8H         LINE#         213
  C:04BEH         LINE#         214
  C:04C0H         LINE#         216
  C:04C0H         LINE#         217
  C:04C3H         LINE#         218
  C:04C9H         LINE#         219
  C:04C9H         LINE#         221
  C:04CCH         LINE#         222
  C:04CFH         LINE#         223
  -------         ENDPROC       _UART3_CONFIG
  -------         PROC          _UART1SENDCHAR
  D:0007H         SYMBOL        SendData
  C:0700H         LINE#         226
  C:0700H         LINE#         227
  C:0700H         LINE#         228
  C:0706H         LINE#         229
  C:0708H         LINE#         230
  C:0710H         LINE#         231
  -------         ENDPROC       _UART1SENDCHAR
  -------         PROC          _UART1SENDDATA
  X:010CH         SYMBOL        SendData
  D:0005H         SYMBOL        DataLength
  C:06A8H         LINE#         233
  C:06AEH         LINE#         234
  C:06AEH         LINE#         235
  C:06B4H         LINE#         236
  C:06B4H         LINE#         237
  C:06BDH         LINE#         238
  C:06BFH         LINE#         239
  -------         ENDPROC       _UART1SENDDATA
  -------         PROC          _UART2SENDCHAR
  D:0007H         SYMBOL        SendData
  C:0711H         LINE#         242
  C:0711H         LINE#         243
  C:0711H         LINE#         244
  C:0717H         LINE#         245
  C:0719H         LINE#         246
  C:0721H         LINE#         247
  -------         ENDPROC       _UART2SENDCHAR
  -------         PROC          _UART2SENDDATA
  X:0112H         SYMBOL        SendData
  D:0005H         SYMBOL        DataLength
  C:06C0H         LINE#         249
  C:06C6H         LINE#         250
  C:06C6H         LINE#         251
  C:06CCH         LINE#         252
  C:06CCH         LINE#         253
  C:06D5H         LINE#         254
  C:06D7H         LINE#         255
  -------         ENDPROC       _UART2SENDDATA
  -------         PROC          _UART3SENDCHAR
  D:0007H         SYMBOL        SendData
  C:0722H         LINE#         258
  C:0722H         LINE#         259
  C:0722H         LINE#         260
  C:0728H         LINE#         261
BL51 BANKED LINKER/LOCATER V6.22.2.0                                                  07/29/2020  15:47:13  PAGE 13


  C:072AH         LINE#         262
  C:0732H         LINE#         263
  -------         ENDPROC       _UART3SENDCHAR
  -------         PROC          _UART3SENDDATA
  X:010CH         SYMBOL        SendData
  D:0005H         SYMBOL        DataLength
  C:0026H         LINE#         265
  C:002CH         LINE#         266
  C:002CH         LINE#         267
  C:002EH         LINE#         268
  C:0034H         LINE#         269
  C:0034H         LINE#         270
  C:003DH         LINE#         271
  C:003FH         LINE#         272
  C:0041H         LINE#         273
  -------         ENDPROC       _UART3SENDDATA
  -------         ENDMOD        SYSTEM

  -------         MODULE        ?C_STARTUP
  C:0245H         SEGMENT       ?C_C51STARTUP
  I:0008H         SEGMENT       ?STACK
  C:0000H         PUBLIC        ?C_STARTUP
  D:00E0H         SYMBOL        ACC
  D:00F0H         SYMBOL        B
  D:0083H         SYMBOL        DPH
  D:0082H         SYMBOL        DPL
  N:0000H         SYMBOL        IBPSTACK
  N:0100H         SYMBOL        IBPSTACKTOP
  N:0080H         SYMBOL        IDATALEN
  C:0248H         SYMBOL        IDATALOOP
  N:0000H         SYMBOL        PBPSTACK
  N:0100H         SYMBOL        PBPSTACKTOP
  N:0000H         SYMBOL        PDATALEN
  N:0000H         SYMBOL        PDATASTART
  N:0000H         SYMBOL        PPAGE
  N:0000H         SYMBOL        PPAGEENABLE
  D:00A0H         SYMBOL        PPAGE_SFR
  D:0081H         SYMBOL        SP
  C:0245H         SYMBOL        STARTUP1
  N:0000H         SYMBOL        XBPSTACK
  N:0000H         SYMBOL        XBPSTACKTOP
  N:0000H         SYMBOL        XDATALEN
  N:0000H         SYMBOL        XDATASTART
  C:0000H         LINE#         126
  C:0245H         LINE#         133
  C:0247H         LINE#         134
  C:0248H         LINE#         135
  C:0249H         LINE#         136
  C:024BH         LINE#         185
  C:024EH         LINE#         196
  -------         ENDMOD        ?C_STARTUP

  -------         MODULE        ?C?CLDPTR
  C:008EH         PUBLIC        ?C?CLDPTR
  -------         ENDMOD        ?C?CLDPTR

  -------         MODULE        ?C?ILDIX
BL51 BANKED LINKER/LOCATER V6.22.2.0                                                  07/29/2020  15:47:13  PAGE 14


  C:00A7H         PUBLIC        ?C?ILDIX
  -------         ENDMOD        ?C?ILDIX

  -------         MODULE        ?C?ULDIV
  C:00F9H         PUBLIC        ?C?ULDIV
  -------         ENDMOD        ?C?ULDIV

  -------         MODULE        ?C?ULSHR
  C:018BH         PUBLIC        ?C?ULSHR
  -------         ENDMOD        ?C?ULSHR

  -------         MODULE        ?C?LSTXDATA
  C:019EH         PUBLIC        ?C?LSTXDATA
  -------         ENDMOD        ?C?LSTXDATA

*** WARNING L16: UNCALLED SEGMENT, IGNORED FOR OVERLAY PROCESS
    SEGMENT: ?PR?_UART2_CONFIG?SYSTEM

*** WARNING L16: UNCALLED SEGMENT, IGNORED FOR OVERLAY PROCESS
    SEGMENT: ?PR?_UART2SENDDATA?SYSTEM

Program Size: data=9.0 xdata=277 code=1832
LINK/LOCATE RUN COMPLETE.  2 WARNING(S),  0 ERROR(S)
