C51 COMPILER V9.59.0.0   MAIN                                                              08/28/2020 13:43:47 PAGE 1   


C51 COMPILER V9.59.0.0, COMPILATION OF MODULE MAIN
OBJECT MODULE PLACED IN .\Objects\main.obj
COMPILER INVOKED BY: C:\Keil_v5\C51\BIN\C51.EXE source\main.c LARGE OPTIMIZE(8,SPEED) BROWSE INCDIR(.\inc) DEBUG OBJECTE
                    -XTEND PRINT(.\Listings\main.lst) TABS(2) OBJECT(.\Objects\main.obj)

line level    source

   1          /*******************************************************************************
   2          *文件描述  ： TQ30主文件文件。
   3          *文件类型  ： .C
   4          *作者      ： lqf
   5          *版本      ： V1.0 2019-12-28
   6          *变更说明  ： 
   7          *******************************************************************************/
   8          /* Includes ------------------------------------------------------------------*/
   9          #include  "system.h"
  10          #include "protocol.h"
  11          
  12          void main(void)
  13          {
  14   1        gpio_conf();
  15   1        RS485_EN = 0;
  16   1        setIO(0, 0);
  17   1        
  18   1        //节拍定时器初始化
  19   1        timer0Conf();
  20   1        
  21   1        //Init Serial
  22   1        UART1_config(115200, 1, 0);  // 使用定时器1，串口切换到P3.0 P3.1，Debug串口
  23   1        UART3_config(9600, 2, 0);    // 使用定时器3，串口切换到P0
  24   1      
  25   1        delay_ms(100);
  26   1        delay_us(100);
  27   1        
  28   1        //主程序
  29   1        while(1)
  30   1        {//主程序控制
  31   2          
  32   2          RS485_EN = 0;
  33   2          
  34   2          if(uart3.RxFinishFlg)
  35   2          {//接收TFT指令
  36   3            uart3.RxFinishFlg = 0;
  37   3            protocal();
  38   3          }
  39   2          
  40   2          if(runPara.RunTime > 49)
  41   2          {//50ms
  42   3            runPara.RunTime = 0;
  43   3            uart3.TxBuf[0]   = 0x01;
  44   3            uart3.TxBuf[1]   = 0x03;
  45   3            uart3.TxBuf[2]   = 0x00;
  46   3            uart3.TxBuf[3]   = 0x00;
  47   3            uart3.TxBuf[4]   = 0x00;
  48   3            uart3.TxBuf[5]   = 0x01;
  49   3            uart3.TxBuf[6]   = 0x84;
  50   3            uart3.TxBuf[7]   = 0x0A;
  51   3            uart3.TxLength   = 8;
  52   3            Uart3SendData(uart3.TxBuf, uart3.TxLength);
  53   3            
  54   3            #ifdef DEBUG
C51 COMPILER V9.59.0.0   MAIN                                                              08/28/2020 13:43:47 PAGE 2   

  55   3            Uart1SendData(uart3.TxBuf, uart3.TxLength);
  56   3            #endif
  57   3            
  58   3          }
  59   2        }
  60   1      }
  61          /************* (C) COPYRIGHT 2020 ZEPU Med *****************/


MODULE INFORMATION:   STATIC OVERLAYABLE
   CODE SIZE        =    156    ----
   CONSTANT SIZE    =   ----    ----
   XDATA SIZE       =   ----    ----
   PDATA SIZE       =   ----    ----
   DATA SIZE        =   ----    ----
   IDATA SIZE       =   ----    ----
   BIT SIZE         =   ----    ----
END OF MODULE INFORMATION.


C51 COMPILATION COMPLETE.  0 WARNING(S),  0 ERROR(S)
