BL51 BANKED LINKER/LOCATER V6.22.2.0                                                    08/28/2020  13:43:47  PAGE 1


BL51 BANKED LINKER/LOCATER V6.22.2.0, INVOKED BY:
C:\KEIL_V5\C51\BIN\BL51.EXE .\Objects\main.obj, .\Objects\stc15w_it.obj, .\Objects\system.obj, .\Objects\protocal.obj TO
>>  .\Objects\x8_converter PRINT (.\Listings\x8_converter.m51) RAMSIZE (256)


MEMORY MODEL: LARGE


INPUT MODULES INCLUDED:
  .\Objects\main.obj (MAIN)
  .\Objects\stc15w_it.obj (STC15W_IT)
  .\Objects\system.obj (SYSTEM)
  .\Objects\protocal.obj (PROTOCAL)
  C:\KEIL_V5\C51\LIB\C51L.LIB (?C_STARTUP)
  C:\KEIL_V5\C51\LIB\C51L.LIB (?C?CLDPTR)
  C:\KEIL_V5\C51\LIB\C51L.LIB (?C?ILDIX)
  C:\KEIL_V5\C51\LIB\C51L.LIB (?C?ULDIV)
  C:\KEIL_V5\C51\LIB\C51L.LIB (?C?ULSHR)
  C:\KEIL_V5\C51\LIB\C51L.LIB (?C?LSTXDATA)
  C:\KEIL_V5\C51\LIB\C51L.LIB (?C_INIT)


LINK MAP OF MODULE:  .\Objects\x8_converter (MAIN)


            TYPE    BASE      LENGTH    RELOCATION   SEGMENT NAME
            -----------------------------------------------------

            * * * * * * *   D A T A   M E M O R Y   * * * * * * *
            REG     0000H     0008H     ABSOLUTE     "REG BANK 0"
            IDATA   0008H     0001H     UNIT         ?STACK

            * * * * * * *  X D A T A   M E M O R Y  * * * * * * *
            XDATA   0000H     010AH     UNIT         ?XD?SYSTEM
            XDATA   010AH     0006H     UNIT         ?XD?_UART2_CONFIG?SYSTEM
            XDATA   0110H     0006H     UNIT         _XDATA_GROUP_
            XDATA   0116H     0003H     UNIT         ?XD?_UART2SENDDATA?SYSTEM
            XDATA   0119H     0002H     UNIT         ?XD?KEY_SCAN?SYSTEM

            * * * * * * *   C O D E   M E M O R Y   * * * * * * *
            CODE    0000H     0003H     ABSOLUTE     
                    0003H     0008H                  *** GAP ***
            CODE    000BH     0003H     ABSOLUTE     
            CODE    000EH     0013H     UNIT         ?PR?_DELAY_MS?SYSTEM
                    0021H     0002H                  *** GAP ***
            CODE    0023H     0003H     ABSOLUTE     
            CODE    0026H     0016H     UNIT         ?PR?_DELAY_US?SYSTEM
                    003CH     0007H                  *** GAP ***
            CODE    0043H     0003H     ABSOLUTE     
            CODE    0046H     002FH     UNIT         ?PR?_UART3SENDDATA?SYSTEM
            CODE    0075H     0012H     UNIT         ?PR?TIMER0CONF?SYSTEM
                    0087H     0004H                  *** GAP ***
            CODE    008BH     0003H     ABSOLUTE     
            CODE    008EH     036BH     UNIT         ?PR?KEY_SCAN?SYSTEM
            CODE    03F9H     011CH     UNIT         ?C?LIB_CODE
            CODE    0515H     00C0H     UNIT         ?PR?_UART1_CONFIG?SYSTEM
            CODE    05D5H     00A5H     UNIT         ?PR?_SETIO?PROTOCAL
            CODE    067AH     009CH     UNIT         ?PR?MAIN?MAIN
BL51 BANKED LINKER/LOCATER V6.22.2.0                                                  08/28/2020  13:43:47  PAGE 2


            CODE    0716H     0096H     UNIT         ?PR?_UART3_CONFIG?SYSTEM
            CODE    07ACH     008CH     UNIT         ?C_C51STARTUP
            CODE    0838H     0082H     UNIT         ?PR?TIMER0INTERRUPT?STC15W_IT
            CODE    08BAH     005FH     UNIT         ?PR?_UART2_CONFIG?SYSTEM
            CODE    0919H     0059H     UNIT         ?PR?UART2INTERRUPT?STC15W_IT
            CODE    0972H     0059H     UNIT         ?PR?UART3INTERRUPT?STC15W_IT
            CODE    09CBH     0051H     UNIT         ?PR?UART1INTERRUPT?STC15W_IT
            CODE    0A1CH     002CH     UNIT         ?PR?PROTOCAL?PROTOCAL
            CODE    0A48H     002BH     UNIT         ?PR?_UART1SENDDATA?SYSTEM
            CODE    0A73H     002BH     UNIT         ?PR?_UART2SENDDATA?SYSTEM
            CODE    0A9EH     0025H     UNIT         ?PR?GPIO_CONF?SYSTEM
            CODE    0AC3H     0022H     UNIT         ?PR?_SETTIMER2BAUDRAYE?SYSTEM
            CODE    0AE5H     0012H     UNIT         ?C_INITSEG
            CODE    0AF7H     0011H     UNIT         ?PR?_UART1SENDCHAR?SYSTEM
            CODE    0B08H     0011H     UNIT         ?PR?_UART2SENDCHAR?SYSTEM
            CODE    0B19H     0011H     UNIT         ?PR?_UART3SENDCHAR?SYSTEM



OVERLAY MAP OF MODULE:   .\Objects\x8_converter (MAIN)


SEGMENT                                 XDATA_GROUP
  +--> CALLED SEGMENT                 START    LENGTH
-----------------------------------------------------
?C_C51STARTUP                         -----    -----
  +--> ?PR?MAIN?MAIN
  +--> ?C_INITSEG

?PR?MAIN?MAIN                         -----    -----
  +--> ?PR?GPIO_CONF?SYSTEM
  +--> ?PR?_SETIO?PROTOCAL
  +--> ?PR?TIMER0CONF?SYSTEM
  +--> ?PR?_UART1_CONFIG?SYSTEM
  +--> ?PR?_UART3_CONFIG?SYSTEM
  +--> ?PR?_DELAY_MS?SYSTEM
  +--> ?PR?_DELAY_US?SYSTEM
  +--> ?PR?PROTOCAL?PROTOCAL
  +--> ?PR?_UART3SENDDATA?SYSTEM
  +--> ?PR?_UART1SENDDATA?SYSTEM

?PR?_UART1_CONFIG?SYSTEM              0110H    0006H
  +--> ?PR?_SETTIMER2BAUDRAYE?SYSTEM

?PR?_UART3_CONFIG?SYSTEM              0110H    0006H
  +--> ?PR?_SETTIMER2BAUDRAYE?SYSTEM

?PR?PROTOCAL?PROTOCAL                 -----    -----
  +--> ?PR?_SETIO?PROTOCAL
  +--> ?PR?_UART1SENDDATA?SYSTEM

?PR?_UART1SENDDATA?SYSTEM             0110H    0003H
  +--> ?PR?_UART1SENDCHAR?SYSTEM

?PR?_UART3SENDDATA?SYSTEM             0110H    0003H
  +--> ?PR?_UART3SENDCHAR?SYSTEM

BL51 BANKED LINKER/LOCATER V6.22.2.0                                                  08/28/2020  13:43:47  PAGE 3




SYMBOL TABLE OF MODULE:  .\Objects\x8_converter (MAIN)

  VALUE           TYPE          NAME
  ----------------------------------

  -------         MODULE        MAIN
  C:0000H         SYMBOL        _ICE_DUMMY_
  D:0080H         PUBLIC        P0
  D:0090H         PUBLIC        P1
  D:00A0H         PUBLIC        P2
  D:00B0H         PUBLIC        P3
  D:00C0H         PUBLIC        P4
  D:00C8H         PUBLIC        P5
  D:00E8H         PUBLIC        P6
  D:00F8H         PUBLIC        P7
  D:00A8H         PUBLIC        IE
  D:00B8H         PUBLIC        IP
  D:00D8H         PUBLIC        CCON
  C:067AH         PUBLIC        main
  D:0098H         PUBLIC        SCON
  D:0088H         PUBLIC        TCON
  B:00A0H.7       PUBLIC        RS485_EN
  D:00F0H         PUBLIC        B
  D:00E0H         PUBLIC        ACC
  D:00D0H         PUBLIC        PSW
  -------         PROC          MAIN
  C:067AH         LINE#         12
  C:067AH         LINE#         13
  C:067AH         LINE#         14
  C:067DH         LINE#         15
  C:067FH         LINE#         16
  C:0685H         LINE#         19
  C:0688H         LINE#         22
  C:069AH         LINE#         23
  C:06ACH         LINE#         25
  C:06B3H         LINE#         26
  C:06BAH         LINE#         29
  C:06BAH         LINE#         30
  C:06BAH         LINE#         32
  C:06BCH         LINE#         34
  C:06C2H         LINE#         35
  C:06C2H         LINE#         36
  C:06C4H         LINE#         37
  C:06C7H         LINE#         38
  C:06C7H         LINE#         40
  C:06D6H         LINE#         41
  C:06D6H         LINE#         42
  C:06DAH         LINE#         43
  C:06DFH         LINE#         44
  C:06E3H         LINE#         45
  C:06E6H         LINE#         46
  C:06E8H         LINE#         47
  C:06EAH         LINE#         48
  C:06EDH         LINE#         49
  C:06F1H         LINE#         50
BL51 BANKED LINKER/LOCATER V6.22.2.0                                                  08/28/2020  13:43:47  PAGE 4


  C:06F5H         LINE#         51
  C:06FBH         LINE#         52
  C:0706H         LINE#         55
  C:0714H         LINE#         58
  C:0714H         LINE#         59
  -------         ENDPROC       MAIN
  -------         ENDMOD        MAIN

  -------         MODULE        STC15W_IT
  C:0000H         SYMBOL        _ICE_DUMMY_
  D:0080H         PUBLIC        P0
  D:0090H         PUBLIC        P1
  D:00A0H         PUBLIC        P2
  D:00B0H         PUBLIC        P3
  D:00C0H         PUBLIC        P4
  D:00C8H         PUBLIC        P5
  D:00E8H         PUBLIC        P6
  D:00F8H         PUBLIC        P7
  C:0838H         PUBLIC        Timer0Interrupt
  D:00A8H         PUBLIC        IE
  D:00B8H         PUBLIC        IP
  B:0098H.0       PUBLIC        RI
  B:0098H.1       PUBLIC        TI
  C:09CBH         PUBLIC        Uart1Interrupt
  D:00D8H         PUBLIC        CCON
  C:0919H         PUBLIC        Uart2Interrupt
  C:0972H         PUBLIC        Uart3Interrupt
  D:0099H         PUBLIC        SBUF
  D:0098H         PUBLIC        SCON
  D:0088H         PUBLIC        TCON
  D:00F0H         PUBLIC        B
  D:00E0H         PUBLIC        ACC
  D:009BH         PUBLIC        S2BUF
  D:00ADH         PUBLIC        S3BUF
  D:009AH         PUBLIC        S2CON
  D:00ACH         PUBLIC        S3CON
  D:00D0H         PUBLIC        PSW
  -------         PROC          TIMER0INTERRUPT
  C:0838H         LINE#         14
  C:0840H         LINE#         16
  C:084EH         LINE#         19
  C:0858H         LINE#         20
  C:0858H         LINE#         21
  C:0866H         LINE#         22
  C:0866H         LINE#         25
  C:086CH         LINE#         26
  C:086CH         LINE#         27
  C:086EH         LINE#         28
  C:0871H         LINE#         29
  C:0871H         LINE#         30
  C:0874H         LINE#         31
  C:087AH         LINE#         32
  C:087FH         LINE#         33
  C:087FH         LINE#         34
  C:087FH         LINE#         36
  C:0885H         LINE#         37
  C:0885H         LINE#         38
BL51 BANKED LINKER/LOCATER V6.22.2.0                                                  08/28/2020  13:43:47  PAGE 5


  C:0887H         LINE#         39
  C:088AH         LINE#         40
  C:088AH         LINE#         41
  C:088DH         LINE#         42
  C:0893H         LINE#         43
  C:0898H         LINE#         44
  C:0898H         LINE#         45
  C:0898H         LINE#         47
  C:089EH         LINE#         48
  C:089EH         LINE#         49
  C:08A0H         LINE#         50
  C:08A3H         LINE#         51
  C:08A3H         LINE#         52
  C:08A6H         LINE#         53
  C:08ACH         LINE#         54
  C:08B1H         LINE#         55
  C:08B1H         LINE#         56
  C:08B1H         LINE#         57
  -------         ENDPROC       TIMER0INTERRUPT
  -------         PROC          UART1INTERRUPT
  C:09CBH         LINE#         60
  C:09D8H         LINE#         62
  C:09DBH         LINE#         63
  C:09DBH         LINE#         64
  C:09DDH         LINE#         65
  C:09E3H         LINE#         66
  C:09F7H         LINE#         67
  C:0A04H         LINE#         68
  C:0A04H         LINE#         69
  C:0A07H         LINE#         70
  C:0A07H         LINE#         71
  C:0A07H         LINE#         72
  C:0A0AH         LINE#         73
  C:0A0AH         LINE#         74
  C:0A0CH         LINE#         75
  C:0A11H         LINE#         76
  C:0A11H         LINE#         77
  -------         ENDPROC       UART1INTERRUPT
  -------         PROC          UART2INTERRUPT
  C:0919H         LINE#         80
  C:0926H         LINE#         82
  C:092CH         LINE#         83
  C:092CH         LINE#         84
  C:092FH         LINE#         85
  C:0935H         LINE#         86
  C:0949H         LINE#         87
  C:0956H         LINE#         88
  C:0956H         LINE#         89
  C:0959H         LINE#         90
  C:0959H         LINE#         91
  C:0959H         LINE#         92
  C:095FH         LINE#         93
  C:095FH         LINE#         94
  C:0962H         LINE#         95
  C:0967H         LINE#         96
  C:0967H         LINE#         97
  -------         ENDPROC       UART2INTERRUPT
BL51 BANKED LINKER/LOCATER V6.22.2.0                                                  08/28/2020  13:43:47  PAGE 6


  -------         PROC          UART3INTERRUPT
  C:0972H         LINE#         100
  C:097FH         LINE#         102
  C:0985H         LINE#         103
  C:0985H         LINE#         104
  C:0988H         LINE#         105
  C:098EH         LINE#         106
  C:09A2H         LINE#         107
  C:09AFH         LINE#         108
  C:09AFH         LINE#         109
  C:09B2H         LINE#         110
  C:09B2H         LINE#         111
  C:09B2H         LINE#         112
  C:09B8H         LINE#         113
  C:09B8H         LINE#         114
  C:09BBH         LINE#         115
  C:09C0H         LINE#         116
  C:09C0H         LINE#         117
  -------         ENDPROC       UART3INTERRUPT
  -------         ENDMOD        STC15W_IT

  -------         MODULE        SYSTEM
  C:0000H         SYMBOL        _ICE_DUMMY_
  B:0090H.2       PUBLIC        L3
  D:0093H         PUBLIC        P0M1
  D:0092H         PUBLIC        P1M0
  B:0090H.3       PUBLIC        L4
  D:0096H         PUBLIC        P2M0
  D:0091H         PUBLIC        P1M1
  D:0080H         PUBLIC        P0
  B:0090H.4       PUBLIC        L5
  D:00B2H         PUBLIC        P3M0
  D:0095H         PUBLIC        P2M1
  D:0090H         PUBLIC        P1
  D:00B4H         PUBLIC        P4M0
  D:00B1H         PUBLIC        P3M1
  D:00A0H         PUBLIC        P2
  D:00CAH         PUBLIC        P5M0
  D:00B3H         PUBLIC        P4M1
  D:00B0H         PUBLIC        P3
  D:00CCH         PUBLIC        P6M0
  D:00C9H         PUBLIC        P5M1
  D:00C0H         PUBLIC        P4
  D:00E2H         PUBLIC        P7M0
  D:00CBH         PUBLIC        P6M1
  D:00C8H         PUBLIC        P5
  B:00A8H.7       PUBLIC        EA
  D:00E8H         PUBLIC        P6
  D:00E1H         PUBLIC        P7M1
  D:00F8H         PUBLIC        P7
  D:00A2H         PUBLIC        P_SW1
  D:00BAH         PUBLIC        P_SW2
  D:00A8H         PUBLIC        IE
  C:0ACAH         PUBLIC        _SetTimer2Baudraye
  B:00A8H.4       PUBLIC        ES
  D:00B8H         PUBLIC        IP
  D:00D8H         PUBLIC        CCON
BL51 BANKED LINKER/LOCATER V6.22.2.0                                                  08/28/2020  13:43:47  PAGE 7


  D:0099H         PUBLIC        SBUF
  D:0098H         PUBLIC        SCON
  D:0089H         PUBLIC        TMOD
  D:0088H         PUBLIC        TCON
  C:0A9EH         PUBLIC        gpio_conf
  B:00A0H.7       PUBLIC        RS485_EN
  D:00AFH         PUBLIC        IE2
  D:00F0H         PUBLIC        B
  D:008EH         PUBLIC        AUXR
  B:00B0H.3       PUBLIC        IndKey
  D:00E0H         PUBLIC        ACC
  C:0515H         PUBLIC        _UART1_config
  B:00A8H.1       PUBLIC        ET0
  C:08BAH         PUBLIC        _UART2_config
  B:00A8H.3       PUBLIC        ET1
  B:0088H.5       PUBLIC        TF0
  C:0716H         PUBLIC        _UART3_config
  X:0003H         PUBLIC        keyValue
  D:008CH         PUBLIC        TH0
  D:008DH         PUBLIC        TH1
  D:00D6H         PUBLIC        TH2
  D:00D4H         PUBLIC        T3H
  D:008AH         PUBLIC        TL0
  D:008BH         PUBLIC        TL1
  C:008EH         PUBLIC        key_scan
  D:00D7H         PUBLIC        TL2
  C:000EH         PUBLIC        _delay_ms
  D:00D5H         PUBLIC        T3L
  B:00B0H.2       PUBLIC        LeftIndKey
  B:0088H.4       PUBLIC        TR0
  B:0088H.6       PUBLIC        TR1
  C:0A48H         PUBLIC        _Uart1SendData
  C:0A73H         PUBLIC        _Uart2SendData
  C:0046H         PUBLIC        _Uart3SendData
  C:0026H         PUBLIC        _delay_us
  C:0AF7H         PUBLIC        _Uart1SendChar
  C:0075H         PUBLIC        timer0Conf
  X:0004H         PUBLIC        runPara
  D:00D1H         PUBLIC        T4T3M
  C:0B08H         PUBLIC        _Uart2SendChar
  C:0B19H         PUBLIC        _Uart3SendChar
  X:0006H         PUBLIC        delayMsCount
  D:009BH         PUBLIC        S2BUF
  D:00ADH         PUBLIC        S3BUF
  B:0098H.4       PUBLIC        REN
  D:009AH         PUBLIC        S2CON
  D:00ACH         PUBLIC        S3CON
  X:0008H         PUBLIC        uart1
  X:005EH         PUBLIC        uart2
  X:00B4H         PUBLIC        uart3
  D:008FH         PUBLIC        INT_CLKO
  B:00A0H.0       PUBLIC        H1
  B:00A0H.1       PUBLIC        H2
  B:00A0H.2       PUBLIC        H3
  D:00D0H         PUBLIC        PSW
  B:00A0H.3       PUBLIC        H4
  B:0090H.0       PUBLIC        L1
BL51 BANKED LINKER/LOCATER V6.22.2.0                                                  08/28/2020  13:43:47  PAGE 8


  B:00A0H.4       PUBLIC        H5
  B:0090H.1       PUBLIC        L2
  D:0094H         PUBLIC        P0M0
  -------         PROC          _DELAY_US
  D:0006H         SYMBOL        us
  C:0026H         LINE#         21
  C:0026H         LINE#         22
  C:0026H         LINE#         23
  C:002AH         LINE#         24
  C:002AH         LINE#         25
  C:002FH         LINE#         26
  C:0034H         LINE#         27
  C:0039H         LINE#         28
  C:003BH         LINE#         29
  -------         ENDPROC       _DELAY_US
  -------         PROC          _DELAY_MS
  D:0006H         SYMBOL        ms
  C:000EH         LINE#         32
  C:000EH         LINE#         33
  C:000EH         LINE#         34
  C:0016H         LINE#         35
  C:0020H         LINE#         36
  -------         ENDPROC       _DELAY_MS
  -------         PROC          GPIO_CONF
  C:0A9EH         LINE#         39
  C:0A9EH         LINE#         40
  C:0A9EH         LINE#         41
  C:0AA3H         LINE#         42
  C:0AA7H         LINE#         43
  C:0AACH         LINE#         44
  C:0AB1H         LINE#         45
  C:0AB6H         LINE#         46
  C:0ABAH         LINE#         47
  C:0ABEH         LINE#         48
  C:0AC2H         LINE#         49
  -------         ENDPROC       GPIO_CONF
  -------         PROC          TIMER0CONF
  C:0075H         LINE#         52
  C:0075H         LINE#         53
  C:0075H         LINE#         54
  C:0078H         LINE#         55
  C:007AH         LINE#         57
  C:007DH         LINE#         58
  C:0080H         LINE#         60
  C:0082H         LINE#         61
  C:0084H         LINE#         62
  C:0086H         LINE#         63
  -------         ENDPROC       TIMER0CONF
  C:0AC3H         SYMBOL        L?0188
  -------         PROC          L?0187
  -------         ENDPROC       L?0187
  C:0AC3H         SYMBOL        L?0188
  -------         PROC          _SETTIMER2BAUDRAYE
  D:0004H         SYMBOL        dat
  C:0ACAH         LINE#         74
  C:0ACEH         LINE#         75
  C:0ACEH         LINE#         76
BL51 BANKED LINKER/LOCATER V6.22.2.0                                                  08/28/2020  13:43:47  PAGE 9


  C:0AD1H         LINE#         77
  C:0AD4H         LINE#         78
  C:0AD7H         LINE#         79
  C:0ADAH         LINE#         80
  C:0ADEH         LINE#         81
  C:0AE1H         LINE#         82
  C:0AE4H         LINE#         83
  -------         ENDPROC       _SETTIMER2BAUDRAYE
  -------         PROC          _UART1_CONFIG
  X:0110H         SYMBOL        brt
  X:0114H         SYMBOL        timer
  X:0115H         SYMBOL        io
  C:0515H         LINE#         96
  C:051BH         LINE#         98
  C:051BH         LINE#         99
  C:0548H         LINE#         101
  C:0550H         LINE#         102
  C:0550H         LINE#         103
  C:0553H         LINE#         104
  C:0559H         LINE#         105
  C:055BH         LINE#         107
  C:055BH         LINE#         108
  C:055DH         LINE#         109
  C:0560H         LINE#         110
  C:0563H         LINE#         111
  C:0566H         LINE#         112
  C:0569H         LINE#         113
  C:057EH         LINE#         114
  C:0587H         LINE#         115
  C:0589H         LINE#         116
  C:058CH         LINE#         117
  C:058EH         LINE#         118
  C:058EH         LINE#         120
  C:0596H         LINE#         122
  C:05A1H         LINE#         123
  C:05A1H         LINE#         124
  C:05A9H         LINE#         125
  C:05AFH         LINE#         126
  C:05B1H         LINE#         127
  C:05B7H         LINE#         128
  C:05B7H         LINE#         129
  C:05BFH         LINE#         130
  C:05C5H         LINE#         131
  C:05C7H         LINE#         133
  C:05C7H         LINE#         134
  C:05CAH         LINE#         135
  C:05D0H         LINE#         136
  C:05D0H         LINE#         138
  C:05D2H         LINE#         139
  C:05D4H         LINE#         141
  -------         ENDPROC       _UART1_CONFIG
  -------         PROC          _UART2_CONFIG
  X:010AH         SYMBOL        brt
  X:010EH         SYMBOL        timer
  X:010FH         SYMBOL        io
  C:08BAH         LINE#         154
  C:08C0H         LINE#         156
BL51 BANKED LINKER/LOCATER V6.22.2.0                                                  08/28/2020  13:43:47  PAGE 10


  C:08C0H         LINE#         157
  C:08EDH         LINE#         158
  C:08F3H         LINE#         159
  C:08F3H         LINE#         161
  C:08F6H         LINE#         163
  C:08FEH         LINE#         164
  C:08FEH         LINE#         165
  C:0901H         LINE#         166
  C:0907H         LINE#         167
  C:0909H         LINE#         169
  C:0909H         LINE#         170
  C:090CH         LINE#         171
  C:0912H         LINE#         172
  C:0912H         LINE#         174
  C:0915H         LINE#         175
  C:0918H         LINE#         176
  -------         ENDPROC       _UART2_CONFIG
  -------         PROC          _UART3_CONFIG
  X:0110H         SYMBOL        brt
  X:0114H         SYMBOL        timer
  X:0115H         SYMBOL        io
  C:0716H         LINE#         189
  C:071CH         LINE#         191
  C:071CH         LINE#         192
  C:0749H         LINE#         193
  C:0751H         LINE#         194
  C:0751H         LINE#         195
  C:0754H         LINE#         196
  C:075AH         LINE#         197
  C:075CH         LINE#         199
  C:075CH         LINE#         200
  C:075FH         LINE#         201
  C:0774H         LINE#         202
  C:077DH         LINE#         203
  C:0780H         LINE#         204
  C:0783H         LINE#         205
  C:0786H         LINE#         206
  C:0786H         LINE#         208
  C:0789H         LINE#         210
  C:0791H         LINE#         211
  C:0791H         LINE#         212
  C:0794H         LINE#         213
  C:079AH         LINE#         214
  C:079CH         LINE#         216
  C:079CH         LINE#         217
  C:079FH         LINE#         218
  C:07A5H         LINE#         219
  C:07A5H         LINE#         221
  C:07A8H         LINE#         222
  C:07ABH         LINE#         223
  -------         ENDPROC       _UART3_CONFIG
  -------         PROC          _UART1SENDCHAR
  D:0007H         SYMBOL        SendData
  C:0AF7H         LINE#         226
  C:0AF7H         LINE#         227
  C:0AF7H         LINE#         228
  C:0AFDH         LINE#         229
BL51 BANKED LINKER/LOCATER V6.22.2.0                                                  08/28/2020  13:43:47  PAGE 11


  C:0AFFH         LINE#         230
  C:0B07H         LINE#         231
  -------         ENDPROC       _UART1SENDCHAR
  -------         PROC          _UART1SENDDATA
  X:0110H         SYMBOL        SendData
  D:0005H         SYMBOL        DataLength
  C:0A48H         LINE#         233
  C:0A53H         LINE#         234
  C:0A53H         LINE#         235
  C:0A59H         LINE#         236
  C:0A59H         LINE#         237
  C:0A70H         LINE#         238
  C:0A72H         LINE#         239
  -------         ENDPROC       _UART1SENDDATA
  -------         PROC          _UART2SENDCHAR
  D:0007H         SYMBOL        SendData
  C:0B08H         LINE#         242
  C:0B08H         LINE#         243
  C:0B08H         LINE#         244
  C:0B0EH         LINE#         245
  C:0B10H         LINE#         246
  C:0B18H         LINE#         247
  -------         ENDPROC       _UART2SENDCHAR
  -------         PROC          _UART2SENDDATA
  X:0116H         SYMBOL        SendData
  D:0005H         SYMBOL        DataLength
  C:0A73H         LINE#         249
  C:0A7EH         LINE#         250
  C:0A7EH         LINE#         251
  C:0A84H         LINE#         252
  C:0A84H         LINE#         253
  C:0A9BH         LINE#         254
  C:0A9DH         LINE#         255
  -------         ENDPROC       _UART2SENDDATA
  -------         PROC          _UART3SENDCHAR
  D:0007H         SYMBOL        SendData
  C:0B19H         LINE#         258
  C:0B19H         LINE#         259
  C:0B19H         LINE#         260
  C:0B1FH         LINE#         261
  C:0B21H         LINE#         262
  C:0B29H         LINE#         263
  -------         ENDPROC       _UART3SENDCHAR
  -------         PROC          _UART3SENDDATA
  X:0110H         SYMBOL        SendData
  D:0005H         SYMBOL        DataLength
  C:0046H         LINE#         265
  C:0051H         LINE#         266
  C:0051H         LINE#         267
  C:0053H         LINE#         268
  C:0059H         LINE#         269
  C:0059H         LINE#         270
  C:0070H         LINE#         271
  C:0072H         LINE#         272
  C:0074H         LINE#         273
  -------         ENDPROC       _UART3SENDDATA
  -------         PROC          KEY_SCAN
BL51 BANKED LINKER/LOCATER V6.22.2.0                                                  08/28/2020  13:43:47  PAGE 12


  -------         DO            
  X:0000H         SYMBOL        IndKeyStatus
  X:0001H         SYMBOL        LeftIndKeyStatus
  X:0002H         SYMBOL        MtxKeyStatus
  X:0119H         SYMBOL        tmpH
  D:0007H         SYMBOL        tmpL
  X:011AH         SYMBOL        tmpValue
  -------         ENDDO         
  C:008EH         LINE#         276
  C:008EH         LINE#         277
  C:008EH         LINE#         286
  C:009CH         LINE#         287
  C:009CH         LINE#         288
  C:009CH         LINE#         289
  C:009FH         LINE#         290
  C:009FH         LINE#         291
  C:00A5H         LINE#         292
  C:00A5H         LINE#         293
  C:00A7H         LINE#         294
  C:00A7H         LINE#         295
  C:00AAH         LINE#         296
  C:00AAH         LINE#         297
  C:00B0H         LINE#         298
  C:00B2H         LINE#         304
  C:00B2H         LINE#         305
  C:00B5H         LINE#         306
  C:00B5H         LINE#         307
  C:00BAH         LINE#         308
  C:00C1H         LINE#         310
  C:00C1H         LINE#         311
  C:00C1H         LINE#         312
  C:00C1H         LINE#         313
  C:00C6H         LINE#         314
  C:00C6H         LINE#         315
  C:00C6H         LINE#         317
  C:00D4H         LINE#         318
  C:00D4H         LINE#         319
  C:00D4H         LINE#         320
  C:00D7H         LINE#         321
  C:00D7H         LINE#         322
  C:00DDH         LINE#         323
  C:00DDH         LINE#         324
  C:00DFH         LINE#         325
  C:00DFH         LINE#         326
  C:00E2H         LINE#         327
  C:00E2H         LINE#         328
  C:00E8H         LINE#         329
  C:00EAH         LINE#         335
  C:00EAH         LINE#         336
  C:00EDH         LINE#         337
  C:00EDH         LINE#         338
  C:00F2H         LINE#         339
  C:00F9H         LINE#         341
  C:00F9H         LINE#         342
  C:00F9H         LINE#         343
  C:00F9H         LINE#         344
  C:00FEH         LINE#         345
BL51 BANKED LINKER/LOCATER V6.22.2.0                                                  08/28/2020  13:43:47  PAGE 13


  C:00FEH         LINE#         346
  C:00FEH         LINE#         348
  C:0121H         LINE#         349
  C:0121H         LINE#         350
  C:0121H         LINE#         351
  C:0138H         LINE#         352
  C:0138H         LINE#         353
  C:013DH         LINE#         354
  C:013DH         LINE#         355
  C:0147H         LINE#         356
  C:0169H         LINE#         357
  C:0169H         LINE#         358
  C:0169H         LINE#         359
  C:016CH         LINE#         360
  C:016CH         LINE#         361
  C:016CH         LINE#         362
  C:0177H         LINE#         363
  C:0177H         LINE#         364
  C:0181H         LINE#         365
  C:01A3H         LINE#         366
  C:01A3H         LINE#         367
  C:01A3H         LINE#         368
  C:01A6H         LINE#         369
  C:01A6H         LINE#         370
  C:01A6H         LINE#         371
  C:01ACH         LINE#         372
  C:01ACH         LINE#         373
  C:01B6H         LINE#         374
  C:01D5H         LINE#         375
  C:01D5H         LINE#         376
  C:01D5H         LINE#         377
  C:01D7H         LINE#         378
  C:01D7H         LINE#         379
  C:01D7H         LINE#         380
  C:01E2H         LINE#         381
  C:01E2H         LINE#         382
  C:01ECH         LINE#         383
  C:020BH         LINE#         384
  C:020BH         LINE#         385
  C:020BH         LINE#         386
  C:020DH         LINE#         387
  C:020DH         LINE#         388
  C:020DH         LINE#         389
  C:0213H         LINE#         390
  C:0213H         LINE#         391
  C:021DH         LINE#         392
  C:023CH         LINE#         393
  C:023CH         LINE#         394
  C:0242H         LINE#         395
  C:0243H         LINE#         396
  C:0243H         LINE#         397
  C:0243H         LINE#         398
  C:024CH         LINE#         399
  C:024CH         LINE#         400
  C:024CH         LINE#         401
  C:026BH         LINE#         402
  C:026BH         LINE#         403
BL51 BANKED LINKER/LOCATER V6.22.2.0                                                  08/28/2020  13:43:47  PAGE 14


  C:0271H         LINE#         404
  C:0272H         LINE#         406
  C:0272H         LINE#         407
  C:0273H         LINE#         408
  C:0273H         LINE#         409
  C:0276H         LINE#         410
  C:0276H         LINE#         411
  C:0278H         LINE#         412
  C:027BH         LINE#         413
  C:029AH         LINE#         414
  C:029AH         LINE#         415
  C:029AH         LINE#         416
  C:02B2H         LINE#         417
  C:02B2H         LINE#         418
  C:02B2H         LINE#         419
  C:02B7H         LINE#         420
  C:02B7H         LINE#         421
  C:02BAH         LINE#         422
  C:02BAH         LINE#         423
  C:02BFH         LINE#         424
  C:02BFH         LINE#         425
  C:02C2H         LINE#         426
  C:02C2H         LINE#         427
  C:02C7H         LINE#         428
  C:02C7H         LINE#         429
  C:02CAH         LINE#         430
  C:02CAH         LINE#         431
  C:02CFH         LINE#         432
  C:02CFH         LINE#         433
  C:02D2H         LINE#         434
  C:02D2H         LINE#         435
  C:02D7H         LINE#         436
  C:02D7H         LINE#         437
  C:02DAH         LINE#         438
  C:02DAH         LINE#         439
  C:02DAH         LINE#         440
  C:02DAH         LINE#         441
  C:02DAH         LINE#         442
  C:02DAH         LINE#         443
  C:02F2H         LINE#         444
  C:02F2H         LINE#         445
  C:02F2H         LINE#         446
  C:02F8H         LINE#         447
  C:02FDH         LINE#         448
  C:02FEH         LINE#         449
  C:02FEH         LINE#         450
  C:0303H         LINE#         451
  C:0303H         LINE#         452
  C:0306H         LINE#         453
  C:0306H         LINE#         454
  C:030BH         LINE#         455
  C:030BH         LINE#         456
  C:030EH         LINE#         457
  C:030EH         LINE#         458
  C:0313H         LINE#         459
  C:0313H         LINE#         460
  C:0316H         LINE#         461
BL51 BANKED LINKER/LOCATER V6.22.2.0                                                  08/28/2020  13:43:47  PAGE 15


  C:0316H         LINE#         462
  C:031BH         LINE#         463
  C:031BH         LINE#         464
  C:031EH         LINE#         465
  C:031EH         LINE#         466
  C:031EH         LINE#         467
  C:031EH         LINE#         468
  C:031EH         LINE#         469
  C:031EH         LINE#         470
  C:0336H         LINE#         471
  C:0336H         LINE#         472
  C:0336H         LINE#         473
  C:033CH         LINE#         474
  C:0340H         LINE#         475
  C:0341H         LINE#         476
  C:0341H         LINE#         477
  C:0346H         LINE#         478
  C:0346H         LINE#         479
  C:0348H         LINE#         480
  C:0348H         LINE#         481
  C:034DH         LINE#         482
  C:034DH         LINE#         483
  C:034FH         LINE#         484
  C:034FH         LINE#         485
  C:0354H         LINE#         486
  C:0354H         LINE#         487
  C:0356H         LINE#         488
  C:0356H         LINE#         489
  C:035BH         LINE#         490
  C:035BH         LINE#         491
  C:035DH         LINE#         492
  C:035DH         LINE#         493
  C:035DH         LINE#         494
  C:035DH         LINE#         495
  C:035DH         LINE#         496
  C:035DH         LINE#         497
  C:0375H         LINE#         498
  C:0375H         LINE#         499
  C:0375H         LINE#         500
  C:037BH         LINE#         501
  C:0380H         LINE#         502
  C:0381H         LINE#         503
  C:0381H         LINE#         504
  C:0386H         LINE#         505
  C:0386H         LINE#         506
  C:0388H         LINE#         507
  C:0388H         LINE#         508
  C:038DH         LINE#         509
  C:038DH         LINE#         510
  C:038FH         LINE#         511
  C:038FH         LINE#         512
  C:0394H         LINE#         513
  C:0394H         LINE#         514
  C:0396H         LINE#         515
  C:0396H         LINE#         516
  C:039BH         LINE#         517
  C:039BH         LINE#         518
BL51 BANKED LINKER/LOCATER V6.22.2.0                                                  08/28/2020  13:43:47  PAGE 16


  C:039DH         LINE#         519
  C:039DH         LINE#         520
  C:039DH         LINE#         521
  C:039DH         LINE#         522
  C:039DH         LINE#         523
  C:039DH         LINE#         524
  C:03ACH         LINE#         525
  C:03ACH         LINE#         526
  C:03ACH         LINE#         527
  C:03B1H         LINE#         528
  C:03B1H         LINE#         529
  C:03B3H         LINE#         530
  C:03B3H         LINE#         531
  C:03B8H         LINE#         532
  C:03B8H         LINE#         533
  C:03BAH         LINE#         534
  C:03BAH         LINE#         535
  C:03C0H         LINE#         536
  C:03C6H         LINE#         537
  C:03C7H         LINE#         538
  C:03C7H         LINE#         539
  C:03C7H         LINE#         540
  C:03C7H         LINE#         541
  C:03C7H         LINE#         542
  C:03C7H         LINE#         543
  C:03C7H         LINE#         544
  C:03C7H         LINE#         545
  C:03D1H         LINE#         546
  C:03D8H         LINE#         547
  C:03D8H         LINE#         548
  C:03DEH         LINE#         549
  C:03DEH         LINE#         550
  C:03DFH         LINE#         551
  C:03DFH         LINE#         552
  C:03E4H         LINE#         553
  C:03ECH         LINE#         554
  C:03EFH         LINE#         556
  C:03EFH         LINE#         557
  C:03EFH         LINE#         558
  C:03F4H         LINE#         559
  C:03F8H         LINE#         560
  C:03F8H         LINE#         561
  C:03F8H         LINE#         562
  -------         ENDPROC       KEY_SCAN
  -------         ENDMOD        SYSTEM

  -------         MODULE        PROTOCAL
  C:0000H         SYMBOL        _ICE_DUMMY_
  D:0080H         PUBLIC        P0
  D:0090H         PUBLIC        P1
  D:00A0H         PUBLIC        P2
  D:00B0H         PUBLIC        P3
  D:00C0H         PUBLIC        P4
  D:00C8H         PUBLIC        P5
  D:00E8H         PUBLIC        P6
  D:00F8H         PUBLIC        P7
  D:00A8H         PUBLIC        IE
BL51 BANKED LINKER/LOCATER V6.22.2.0                                                  08/28/2020  13:43:47  PAGE 17


  D:00B8H         PUBLIC        IP
  D:00D8H         PUBLIC        CCON
  B:00A0H.0       PUBLIC        I00
  B:00A0H.1       PUBLIC        I01
  B:00A0H.2       PUBLIC        I02
  B:00A0H.3       PUBLIC        I03
  B:00A0H.4       PUBLIC        I04
  B:00A0H.5       PUBLIC        I05
  B:00A0H.6       PUBLIC        I06
  B:00B0H.4       PUBLIC        I07
  B:00B0H.5       PUBLIC        I08
  B:00B0H.6       PUBLIC        I09
  D:0098H         PUBLIC        SCON
  D:0088H         PUBLIC        TCON
  D:00F0H         PUBLIC        B
  D:00E0H         PUBLIC        ACC
  B:00B0H.7       PUBLIC        I010
  B:00C0H.1       PUBLIC        I011
  B:00C0H.2       PUBLIC        I012
  B:00C0H.3       PUBLIC        I013
  B:00C0H.4       PUBLIC        I014
  B:00C0H.5       PUBLIC        I015
  C:05D5H         PUBLIC        _setIO
  C:0A1CH         PUBLIC        protocal
  D:00D0H         PUBLIC        PSW
  -------         PROC          _SETIO
  D:0007H         SYMBOL        High
  D:0005H         SYMBOL        Low
  C:05D5H         LINE#         12
  C:05D5H         LINE#         13
  C:05D5H         LINE#         14
  C:05E2H         LINE#         15
  C:05EEH         LINE#         16
  C:05F9H         LINE#         17
  C:0603H         LINE#         18
  C:060FH         LINE#         19
  C:061AH         LINE#         20
  C:0623H         LINE#         21
  C:0627H         LINE#         22
  C:0634H         LINE#         23
  C:0640H         LINE#         24
  C:064BH         LINE#         25
  C:0655H         LINE#         26
  C:0661H         LINE#         27
  C:066CH         LINE#         28
  C:0675H         LINE#         29
  C:0679H         LINE#         30
  -------         ENDPROC       _SETIO
  -------         PROC          PROTOCAL
  C:0A1CH         LINE#         32
  C:0A1CH         LINE#         33
  C:0A1CH         LINE#         34
  C:0A30H         LINE#         35
  C:0A30H         LINE#         36
  C:0A39H         LINE#         38
  C:0A47H         LINE#         40
  C:0A47H         LINE#         41
BL51 BANKED LINKER/LOCATER V6.22.2.0                                                  08/28/2020  13:43:47  PAGE 18


  -------         ENDPROC       PROTOCAL
  -------         ENDMOD        PROTOCAL

  -------         MODULE        ?C?CLDPTR
  C:03F9H         PUBLIC        ?C?CLDPTR
  -------         ENDMOD        ?C?CLDPTR

  -------         MODULE        ?C?ILDIX
  C:0412H         PUBLIC        ?C?ILDIX
  -------         ENDMOD        ?C?ILDIX

  -------         MODULE        ?C?ULDIV
  C:0464H         PUBLIC        ?C?ULDIV
  -------         ENDMOD        ?C?ULDIV

  -------         MODULE        ?C?ULSHR
  C:04F6H         PUBLIC        ?C?ULSHR
  -------         ENDMOD        ?C?ULSHR

  -------         MODULE        ?C?LSTXDATA
  C:0509H         PUBLIC        ?C?LSTXDATA
  -------         ENDMOD        ?C?LSTXDATA

*** WARNING L16: UNCALLED SEGMENT, IGNORED FOR OVERLAY PROCESS
    SEGMENT: ?PR?_UART2_CONFIG?SYSTEM

*** WARNING L16: UNCALLED SEGMENT, IGNORED FOR OVERLAY PROCESS
    SEGMENT: ?PR?_UART2SENDDATA?SYSTEM

*** WARNING L16: UNCALLED SEGMENT, IGNORED FOR OVERLAY PROCESS
    SEGMENT: ?PR?KEY_SCAN?SYSTEM

Program Size: data=9.0 xdata=283 code=2837
LINK/LOCATE RUN COMPLETE.  3 WARNING(S),  0 ERROR(S)
